:10000300EFD3940540037F012231FDFED3940340D7
:10001300037F0222EF703BEE700A9000015116F449
:100023005293529431FDB4010A9000015116429348
:10003300F4529431FDFEB40209900001511642932B
:100043004294EEB4030C9000015116FEF45293EE69
:100053004294EF6401703C31FDFE700A900001513F
:1000630016F452915292EEB4010A900001511642D5
:1000730091F4529231FDB40209900001511642915C
:10008300429231FDB4030C9000015116FEF45291DB
:10009300EE4292EF6402703C31FDFE700A90000163
:1000A3005116F452955296EEB4010A90000151167E
:1000B3004295F4529631FDB4020990000151164263
:1000C30095429631FDB4030C9000015116FEF45293
:1000D30095EE4296EF6403703C31FDFE700A90008A
:1000E300015116F452B152B2EEB4010A900001511B
:1000F3001642B1F452B231FDB40209900001511617
:1001030042B142B231FDB4030C9000015116FEF42A
:1001130052B1EE42B2EF6404703C31FDFE700A90BE
:1001230000015116F452B352B4EEB4010A90000127
:10013300511642B3F452B431FDB402099000015197
:100143001642B342B431FDB4030C9000015116FEC4
:10015300F452B3EE42B4EF6405703C31FDFF700A14
:100163009000015116F452C952CAEFB4010A90002B
:1001730001511642C9F452CA31FDB402099000017B
:10018300511642C942CA31FDB4030C900001511605
:0A019300FFF452C9EF42CA7F0022B8
:10019D007509147508037B007A0079087F01110336
:1001AD007509047508017B007A0079087F03110336
:1001BD0075092A7508017B007A0079087F01110302
:1001CD007509037508017B007A0079087F01110319
:1001DD007509887508017B007A0079087F03110382
:1001ED007509307508017B007A0079087F050103D8
:10024300319DC292D2B230B204D29480F9C294806A
:01025300F5B5
:03000000020254A5
:0C025400787FE4F6D8FD758109020243B2
:1001FD00BB010689828A83E0225002E722BBFE0200
:09020D00E32289828A83E4932232
:10021600BB010CE58229F582E5833AF583E022509D
:1002260006E92582F8E622BBFE06E92582F8E222E7
:0D023600E58229F582E5833AF583E4932201
:00000001FF
