:10000500EFD3940540037F012231FFFED3940340D3
:10001500037F0222EF703BEE700A9000015118F445
:100025005293529431FFB4010A9000015118429342
:10003500F4529431FFFEB402099000015118429325
:100045004294EEB4030C9000015118FEF45293EE65
:100055004294EF6401703C31FFFE700A900001513B
:1000650018F452915292EEB4010A900001511842CF
:1000750091F4529231FFB402099000015118429156
:10008500429231FFB4030C9000015118FEF45291D5
:10009500EE4292EF6402703C31FFFE700A9000015F
:1000A5005118F452955296EEB4010A900001511878
:1000B5004295F4529631FFB402099000015118425D
:1000C50095429631FFB4030C9000015118FEF4528D
:1000D50095EE4296EF6403703C31FFFE700A900086
:1000E500015118F452B152B2EEB4010A9000015117
:1000F5001842B1F452B231FFB4020990000151180F
:1001050042B142B231FFB4030C9000015118FEF424
:1001150052B1EE42B2EF6404703C31FFFE700A90BA
:1001250000015118F452B352B4EEB4010A90000123
:10013500511842B3F452B431FFB402099000015191
:100145001842B342B431FFB4030C9000015118FEBC
:10015500F452B3EE42B4EF6405703C31FFFF700A10
:100165009000015118F452C952CAEFB4010A900027
:1001750001511842C9F452CA31FFB4020990000175
:10018500511842C942CA31FFB4030C9000015118FD
:0A019500FFF452C9EF42CA7F0022B6
:10019F007509147508037B007A0079087F01110532
:1001AF007509047508017B007A0079087F03110532
:1001BF0075092A7508017B007A0079087F011105FE
:1001CF007509037508017B007A0079087F01110515
:1001DF007509887508017B007A0079087F0311057E
:1001EF007509307508017B007A0079087F050105D4
:02000300418139
:01028100324A
:10024500319FC292D2B2C288D2A8D2AF30B204D204
:10025500948002C29443870200007F14516580ECAC
:0F0265007DA97C01ED1D70011C144C70F7DFF1B9
:010274002267
:0300000002027584
:0C027500787FE4F6D8FD7581090202458F
:1001FF00BB010689828A83E0225002E722BBFE02FE
:09020F00E32289828A83E4932230
:10021800BB010CE58229F582E5833AF583E022509B
:1002280006E92582F8E622BBFE06E92582F8E222E5
:0D023800E58229F582E5833AF583E49322FF
:00000001FF
